{"abi":[{"type":"constructor","inputs":[{"name":"vrfCoordinatorV2","type":"address","internalType":"address"},{"name":"subscriptionId","type":"uint64","internalType":"uint64"},{"name":"gasLane","type":"bytes32","internalType":"bytes32"},{"name":"callbackGasLimit","type":"uint32","internalType":"uint32"},{"name":"initialOwner","type":"address","internalType":"address"}],"stateMutability":"nonpayable"},{"type":"function","name":"approve","inputs":[{"name":"to","type":"address","internalType":"address"},{"name":"tokenId","type":"uint256","internalType":"uint256"}],"outputs":[],"stateMutability":"nonpayable"},{"type":"function","name":"balanceOf","inputs":[{"name":"owner","type":"address","internalType":"address"}],"outputs":[{"name":"","type":"uint256","internalType":"uint256"}],"stateMutability":"view"},{"type":"function","name":"burnLoot","inputs":[{"name":"tokenId","type":"uint256","internalType":"uint256"}],"outputs":[],"stateMutability":"nonpayable"},{"type":"function","name":"equipment","inputs":[{"name":"","type":"uint256","internalType":"uint256"}],"outputs":[{"name":"tokenId","type":"uint256","internalType":"uint256"},{"name":"equipmentType","type":"uint8","internalType":"enum LootManager.EquipmentType"},{"name":"rarity","type":"uint8","internalType":"enum LootManager.Rarity"},{"name":"name","type":"string","internalType":"string"},{"name":"attackPower","type":"uint256","internalType":"uint256"},{"name":"defensePower","type":"uint256","internalType":"uint256"},{"name":"magicPower","type":"uint256","internalType":"uint256"},{"name":"durability","type":"uint256","internalType":"uint256"},{"name":"isLendable","type":"bool","internalType":"bool"},{"name":"originalOwner","type":"address","internalType":"address"},{"name":"createdAt","type":"uint256","internalType":"uint256"},{"name":"lootType","type":"string","internalType":"string"},{"name":"power","type":"uint256","internalType":"uint256"}],"stateMutability":"view"},{"type":"function","name":"equipmentOwner","inputs":[{"name":"","type":"uint256","internalType":"uint256"}],"outputs":[{"name":"","type":"address","internalType":"address"}],"stateMutability":"view"},{"type":"function","name":"getApproved","inputs":[{"name":"tokenId","type":"uint256","internalType":"uint256"}],"outputs":[{"name":"","type":"address","internalType":"address"}],"stateMutability":"view"},{"type":"function","name":"getEquipment","inputs":[{"name":"tokenId","type":"uint256","internalType":"uint256"}],"outputs":[{"name":"","type":"tuple","internalType":"struct LootManager.Equipment","components":[{"name":"tokenId","type":"uint256","internalType":"uint256"},{"name":"equipmentType","type":"uint8","internalType":"enum LootManager.EquipmentType"},{"name":"rarity","type":"uint8","internalType":"enum LootManager.Rarity"},{"name":"name","type":"string","internalType":"string"},{"name":"attackPower","type":"uint256","internalType":"uint256"},{"name":"defensePower","type":"uint256","internalType":"uint256"},{"name":"magicPower","type":"uint256","internalType":"uint256"},{"name":"durability","type":"uint256","internalType":"uint256"},{"name":"isLendable","type":"bool","internalType":"bool"},{"name":"originalOwner","type":"address","internalType":"address"},{"name":"createdAt","type":"uint256","internalType":"uint256"},{"name":"lootType","type":"string","internalType":"string"},{"name":"power","type":"uint256","internalType":"uint256"},{"name":"attributes","type":"string[]","internalType":"string[]"}]}],"stateMutability":"view"},{"type":"function","name":"getLoot","inputs":[{"name":"tokenId","type":"uint256","internalType":"uint256"}],"outputs":[{"name":"","type":"tuple","internalType":"struct LootManager.LootItem","components":[{"name":"name","type":"string","internalType":"string"},{"name":"lootType","type":"string","internalType":"string"},{"name":"rarity","type":"uint256","internalType":"uint256"},{"name":"power","type":"uint256","internalType":"uint256"},{"name":"attributes","type":"string[]","internalType":"string[]"}]}],"stateMutability":"view"},{"type":"function","name":"getPlayerEquipment","inputs":[{"name":"player","type":"address","internalType":"address"}],"outputs":[{"name":"","type":"uint256[]","internalType":"uint256[]"}],"stateMutability":"view"},{"type":"function","name":"isApprovedForAll","inputs":[{"name":"owner","type":"address","internalType":"address"},{"name":"operator","type":"address","internalType":"address"}],"outputs":[{"name":"","type":"bool","internalType":"bool"}],"stateMutability":"view"},{"type":"function","name":"lootRequests","inputs":[{"name":"","type":"uint256","internalType":"uint256"}],"outputs":[{"name":"requestId","type":"uint256","internalType":"uint256"},{"name":"player","type":"address","internalType":"address"},{"name":"partyId","type":"uint256","internalType":"uint256"},{"name":"dungeonLevel","type":"uint256","internalType":"uint256"},{"name":"fulfilled","type":"bool","internalType":"bool"}],"stateMutability":"view"},{"type":"function","name":"mintLoot","inputs":[{"name":"to","type":"address","internalType":"address"},{"name":"name","type":"string","internalType":"string"},{"name":"lootType","type":"string","internalType":"string"},{"name":"rarity","type":"uint256","internalType":"uint256"},{"name":"power","type":"uint256","internalType":"uint256"},{"name":"attributes","type":"string[]","internalType":"string[]"}],"outputs":[{"name":"","type":"uint256","internalType":"uint256"}],"stateMutability":"nonpayable"},{"type":"function","name":"name","inputs":[],"outputs":[{"name":"","type":"string","internalType":"string"}],"stateMutability":"view"},{"type":"function","name":"owner","inputs":[],"outputs":[{"name":"","type":"address","internalType":"address"}],"stateMutability":"view"},{"type":"function","name":"ownerOf","inputs":[{"name":"tokenId","type":"uint256","internalType":"uint256"}],"outputs":[{"name":"","type":"address","internalType":"address"}],"stateMutability":"view"},{"type":"function","name":"playerEquipment","inputs":[{"name":"","type":"address","internalType":"address"},{"name":"","type":"uint256","internalType":"uint256"}],"outputs":[{"name":"","type":"uint256","internalType":"uint256"}],"stateMutability":"view"},{"type":"function","name":"rarityProbabilities","inputs":[{"name":"","type":"uint8","internalType":"enum LootManager.Rarity"}],"outputs":[{"name":"","type":"uint256","internalType":"uint256"}],"stateMutability":"view"},{"type":"function","name":"rawFulfillRandomWords","inputs":[{"name":"requestId","type":"uint256","internalType":"uint256"},{"name":"randomWords","type":"uint256[]","internalType":"uint256[]"}],"outputs":[],"stateMutability":"nonpayable"},{"type":"function","name":"renounceOwnership","inputs":[],"outputs":[],"stateMutability":"nonpayable"},{"type":"function","name":"requestLoot","inputs":[{"name":"player","type":"address","internalType":"address"},{"name":"partyId","type":"uint256","internalType":"uint256"},{"name":"dungeonLevel","type":"uint256","internalType":"uint256"}],"outputs":[{"name":"","type":"uint256","internalType":"uint256"}],"stateMutability":"nonpayable"},{"type":"function","name":"safeTransferFrom","inputs":[{"name":"from","type":"address","internalType":"address"},{"name":"to","type":"address","internalType":"address"},{"name":"tokenId","type":"uint256","internalType":"uint256"}],"outputs":[],"stateMutability":"nonpayable"},{"type":"function","name":"safeTransferFrom","inputs":[{"name":"from","type":"address","internalType":"address"},{"name":"to","type":"address","internalType":"address"},{"name":"tokenId","type":"uint256","internalType":"uint256"},{"name":"data","type":"bytes","internalType":"bytes"}],"outputs":[],"stateMutability":"nonpayable"},{"type":"function","name":"setApprovalForAll","inputs":[{"name":"operator","type":"address","internalType":"address"},{"name":"approved","type":"bool","internalType":"bool"}],"outputs":[],"stateMutability":"nonpayable"},{"type":"function","name":"setLendingStatus","inputs":[{"name":"tokenId","type":"uint256","internalType":"uint256"},{"name":"isLendable","type":"bool","internalType":"bool"}],"outputs":[],"stateMutability":"nonpayable"},{"type":"function","name":"supportsInterface","inputs":[{"name":"interfaceId","type":"bytes4","internalType":"bytes4"}],"outputs":[{"name":"","type":"bool","internalType":"bool"}],"stateMutability":"view"},{"type":"function","name":"symbol","inputs":[],"outputs":[{"name":"","type":"string","internalType":"string"}],"stateMutability":"view"},{"type":"function","name":"tokenURI","inputs":[{"name":"tokenId","type":"uint256","internalType":"uint256"}],"outputs":[{"name":"","type":"string","internalType":"string"}],"stateMutability":"view"},{"type":"function","name":"transferFrom","inputs":[{"name":"from","type":"address","internalType":"address"},{"name":"to","type":"address","internalType":"address"},{"name":"tokenId","type":"uint256","internalType":"uint256"}],"outputs":[],"stateMutability":"nonpayable"},{"type":"function","name":"transferOwnership","inputs":[{"name":"newOwner","type":"address","internalType":"address"}],"outputs":[],"stateMutability":"nonpayable"},{"type":"function","name":"typeProbabilities","inputs":[{"name":"","type":"uint8","internalType":"enum LootManager.EquipmentType"}],"outputs":[{"name":"","type":"uint256","internalType":"uint256"}],"stateMutability":"view"},{"type":"event","name":"Approval","inputs":[{"name":"owner","type":"address","indexed":true,"internalType":"address"},{"name":"approved","type":"address","indexed":true,"internalType":"address"},{"name":"tokenId","type":"uint256","indexed":true,"internalType":"uint256"}],"anonymous":false},{"type":"event","name":"ApprovalForAll","inputs":[{"name":"owner","type":"address","indexed":true,"internalType":"address"},{"name":"operator","type":"address","indexed":true,"internalType":"address"},{"name":"approved","type":"bool","indexed":false,"internalType":"bool"}],"anonymous":false},{"type":"event","name":"BatchMetadataUpdate","inputs":[{"name":"_fromTokenId","type":"uint256","indexed":false,"internalType":"uint256"},{"name":"_toTokenId","type":"uint256","indexed":false,"internalType":"uint256"}],"anonymous":false},{"type":"event","name":"EquipmentCreated","inputs":[{"name":"tokenId","type":"uint256","indexed":true,"internalType":"uint256"},{"name":"owner","type":"address","indexed":true,"internalType":"address"},{"name":"name","type":"string","indexed":false,"internalType":"string"}],"anonymous":false},{"type":"event","name":"EquipmentLendingStatusChanged","inputs":[{"name":"tokenId","type":"uint256","indexed":true,"internalType":"uint256"},{"name":"isLendable","type":"bool","indexed":false,"internalType":"bool"}],"anonymous":false},{"type":"event","name":"LootGenerated","inputs":[{"name":"tokenId","type":"uint256","indexed":true,"internalType":"uint256"},{"name":"player","type":"address","indexed":true,"internalType":"address"},{"name":"equipmentType","type":"uint8","indexed":false,"internalType":"enum LootManager.EquipmentType"},{"name":"rarity","type":"uint8","indexed":false,"internalType":"enum LootManager.Rarity"}],"anonymous":false},{"type":"event","name":"LootRequested","inputs":[{"name":"requestId","type":"uint256","indexed":true,"internalType":"uint256"},{"name":"player","type":"address","indexed":true,"internalType":"address"},{"name":"partyId","type":"uint256","indexed":false,"internalType":"uint256"}],"anonymous":false},{"type":"event","name":"MetadataUpdate","inputs":[{"name":"_tokenId","type":"uint256","indexed":false,"internalType":"uint256"}],"anonymous":false},{"type":"event","name":"OwnershipTransferred","inputs":[{"name":"previousOwner","type":"address","indexed":true,"internalType":"address"},{"name":"newOwner","type":"address","indexed":true,"internalType":"address"}],"anonymous":false},{"type":"event","name":"Transfer","inputs":[{"name":"from","type":"address","indexed":true,"internalType":"address"},{"name":"to","type":"address","indexed":true,"internalType":"address"},{"name":"tokenId","type":"uint256","indexed":true,"internalType":"uint256"}],"anonymous":false},{"type":"error","name":"ERC721IncorrectOwner","inputs":[{"name":"sender","type":"address","internalType":"address"},{"name":"tokenId","type":"uint256","internalType":"uint256"},{"name":"owner","type":"address","internalType":"address"}]},{"type":"error","name":"ERC721InsufficientApproval","inputs":[{"name":"operator","type":"address","internalType":"address"},{"name":"tokenId","type":"uint256","internalType":"uint256"}]},{"type":"error","name":"ERC721InvalidApprover","inputs":[{"name":"approver","type":"address","internalType":"address"}]},{"type":"error","name":"ERC721InvalidOperator","inputs":[{"name":"operator","type":"address","internalType":"address"}]},{"type":"error","name":"ERC721InvalidOwner","inputs":[{"name":"owner","type":"address","internalType":"address"}]},{"type":"error","name":"ERC721InvalidReceiver","inputs":[{"name":"receiver","type":"address","internalType":"address"}]},{"type":"error","name":"ERC721InvalidSender","inputs":[{"name":"sender","type":"address","internalType":"address"}]},{"type":"error","name":"ERC721NonexistentToken","inputs":[{"name":"tokenId","type":"uint256","internalType":"uint256"}]},{"type":"error","name":"OnlyCoordinatorCanFulfill","inputs":[{"name":"have","type":"address","internalType":"address"},{"name":"want","type":"address","internalType":"address"}]},{"type":"error","name":"OwnableInvalidOwner","inputs":[{"name":"owner","type":"address","internalType":"address"}]},{"type":"error","name":"OwnableUnauthorizedAccount","inputs":[{"name":"account","type":"address","internalType":"address"}]},{"type":"error","name":"ReentrancyGuardReentrantCall","inputs":[]}],"bytecode":{"object":"0x6101203461046c57601f1990601f613497388190038281018516840192916001600160401b03919082851186861017610470578160a0928792604097885283398101031261046c57610050846104a3565b9460209182860151818116810361046c57858701519160608801519763ffffffff8916890361046c57608061008591016104a3565b9061008e610484565b966011885270111d5b99d95bdb88115c5d5a5c1b595b9d607a1b878901526100b4610484565b600496878252630444551560e41b898301528951848111610459575f549a60019b8c81811c9116801561044f575b8c82101461043c57908b82878594116103eb575b50508b90868311600114610385575f9261037a575b50505f19600383901b1c1916908b1b175f555b81519384116103675789548a81811c9116801561035d575b8a82101461034a5790818486959493116102f8575b508992841160011461029c57505f92610291575b50505f19600383901b1c191690871b1786555b6001600160a01b0390811698891561027b57600f96979899826007548260018060a01b0319821617600755167f8be0079c531659141344cd1fd0a4f28419497f9722a3daafe3b4186f6b6457e05f80a387600855806080521660a05260c05260e0526101009586525f8052600e8252611388855f2055835f526109c4855f205560025f526105dc855f205560035f526102ee855f20555f5260c8845f205560055f526032845f20555f805252610dac9081835f20555f52815f205560025f526107d0815f205560035f526103e8815f205551612fdf91826104b8833960805182611966015260a051826102f7015260c0518261027a015260e05182610254015251816102b20152f35b8751631e4fbdf760e01b81525f81870152602490fd5b015190505f8061015f565b8a949291921691845f52895f20925f5b8b8282106102e257505084116102ca575b505050811b018655610172565b01515f1960f88460031b161c191690555f80806102bd565b8385015186558d979095019493840193016102ac565b90919293508a5f52895f208480870160051c8201928c8810610341575b9187968e92969594930160051c01915b82811061033357505061014b565b5f81558796508d9101610325565b92508192610315565b602289634e487b7160e01b5f525260245ffd5b90607f1690610136565b604188634e487b7160e01b5f525260245ffd5b015190505f8061010b565b908c91858f95165f8052835f20935f905b8282106103cb57505084116103b3575b505050811b015f5561011e565b01515f1960f88460031b161c191690555f80806103a6565b91929395968291958786015181550195019301908f95949392918f610396565b909192505f805286825f209181860160051c8301938610610433575b918f91869594930160051c01915b82811061042557508d91506100f6565b5f81558594508f9101610415565b92508192610407565b60228b634e487b7160e01b5f525260245ffd5b90607f16906100e2565b604189634e487b7160e01b5f525260245ffd5b5f80fd5b634e487b7160e01b5f52604160045260245ffd5b60408051919082016001600160401b0381118382101761047057604052565b51906001600160a01b038216820361046c5756fe60806040526004361015610011575f80fd5b5f3560e01c80630149f8551461236957806301ffc9a7146122e157806306fdde031461223a578063081812fc146121fe578063095ea7b31461211d5780631fe543e3146118e857806323b872dd146118d15780633e40a437146118a9578063425ce651146116a957806342842e0e1461167c5780636352211e1461164c57806365b817e61461154b57806370a08231146114f5578063715018a61461149a57806381dd2fa01461121b578063838db997146111b95780638da5cb5b146111915780639361e72014610ae457806395d89b4114610a065780639f62d0e014610943578063a22cb4651461089c578063a2fbf5671461086b578063b88d4fde146107fe578063c87b56dd146107a4578063cf513e571461053c578063d67c2a1c1461048e578063e985e9c51461043c578063f20b557b14610220578063f2fde38b146101995763f4643f8f14610163575f80fd5b34610195576020366003190112610195576004355f52600d602052602060018060a01b0360405f205416604051908152f35b5f80fd5b34610195576020366003190112610195576101b26123c0565b6101ba6129a1565b6001600160a01b0390811690811561020857600754826001600160601b0360a01b821617600755167f8be0079c531659141344cd1fd0a4f28419497f9722a3daafe3b4186f6b6457e05f80a3005b604051631e4fbdf760e01b81525f6004820152602490fd5b34610195576060366003190112610195576102396123c0565b602435906102456129a1565b6040516305d3b1d360e41b81527f000000000000000000000000000000000000000000000000000000000000000060048201527f00000000000000000000000000000000000000000000000000000000000000006001600160401b031660248201526003604482018190527f000000000000000000000000000000000000000000000000000000000000000063ffffffff16606483015260848201526020926001600160a01b03929190848260a4815f7f000000000000000000000000000000000000000000000000000000000000000089165af19384156104315785925f956103e0575b50917fe2916f9d81664ab79be0f58df621b6ecf1ec366fe51c6ee4d2a06dff6364b90e916103d1869460046040519161036283612441565b87835280868401991698898152604084018681526060850191604435835260808601935f85528b5f52600b8a5260405f2096518755600187019151166001600160601b0360a01b82541617905551600285015551600384015551151591019060ff801983541691151516179055565b604051908152a3604051908152f35b94509184813d811161042a575b6103f78183612492565b810103126101955792519284917fe2916f9d81664ab79be0f58df621b6ecf1ec366fe51c6ee4d2a06dff6364b90e61032a565b503d6103ed565b6040513d5f823e3d90fd5b34610195576040366003190112610195576104556123c0565b61045d6123d6565b9060018060a01b038091165f52600560205260405f2091165f52602052602060ff60405f2054166040519015158152f35b3461019557602080600319360112610195576001600160a01b036104b06123c0565b165f52600c815260405f20604051908183825491828152019081925f52845f20905f5b868282106105285786866104e982880383612492565b60405192839281840190828552518091526040840192915f5b82811061051157505050500390f35b835185528695509381019392810192600101610502565b8354855290930192600192830192016104d3565b3461019557602080600319360112610195576004359061055a6129a1565b6001600160a01b03908161056d8461297f565b165f52600c815260405f2091835f5b84548082101561079a57829061059283886123ec565b929054600393841b1c146105aa57505060010161057c565b94955f199591935091858201918211610786576105da6105cd6105f293856123ec565b905490861b1c91846123ec565b90919082549060031b91821b915f19901b1916179055565b805493841561077257808795019261060a84846123ec565b81939154921b1b19169055555b815f52600a835260405f205f8155600b6001915f600182015561063c600282016128cd565b5f60038201555f60048201555f60058201555f60068201555f60078201555f600882015561066c600982016128cd565b5f600a820155018054905f81558161073b575b5050505f90828252600d845260408220906001600160601b0360a01b91828154169055600285526040832054169060028215958615610709575b85855252604083209081541690557fddf252ad1be2c89b69c2b068fc378daa952ba7f163c4a11628f55a4df523b3ef8280a46106f157005b60249060405190637e27328960e01b82526004820152fd5b5f86815260046020526040902080546001600160a01b03191690558385526003815260408520851981540190556106b9565b5f949392919452845f209384015b808510610759578293945061067f565b9193819350610767816128cd565b019290918592610749565b634e487b7160e01b5f52603160045260245ffd5b634e487b7160e01b5f52601160045260245ffd5b5050919250610617565b34610195576020366003190112610195576004356107c18161297f565b505f5260066020526107fa6107d860405f206125aa565b5f6040516107e58161245c565b52604051918291602083526020830190612401565b0390f35b34610195576080366003190112610195576108176123c0565b61081f6123d6565b90604435606435926001600160401b038411610195573660238501121561019557610857610869943690602481600401359101612681565b926108638383836126fb565b33612cac565b005b34610195576020366003190112610195576004356006811015610195576108936020916126e4565b54604051908152f35b34610195576040366003190112610195576108b56123c0565b6108bd6126d5565b6001600160a01b0390911690811561092a57335f52600560205260405f20825f526020526108fa8160405f209060ff801983541691151516179055565b60405190151581527f17307eab39ab6107e8899845ad3d59bd9653f200f220920489ca2b5937696c3160203392a3005b604051630b61174360e31b815260048101839052602490fd5b346101955760403660031901126101955760043561095f6126d5565b6109688261297f565b336001600160a01b03909116036109cb5760207f84fda359738658cb841a58995a5f19943e88e80f369fa5720951579be61379f791835f52600a82526109c081600760405f20019060ff801983541691151516179055565b6040519015158152a2005b60405162461bcd60e51b81526020600482015260136024820152722737ba1032b8bab4b836b2b73a1037bbb732b960691b6044820152606490fd5b34610195575f366003190112610195576040515f60018260015492610a2a84612572565b92838352602094856001821691825f14610ac4575050600114610a69575b50610a5592500383612492565b6107fa604051928284938452830190612401565b84915060015f527fb10e2d527612073b26eecdfd717e6a320cf44b4afac2b0732d9fcbe2b7fa0cf6905f915b858310610aac575050610a55935082010185610a48565b80548389018501528794508693909201918101610a95565b60ff191685820152610a5595151560051b8501019250879150610a489050565b346101955760c036600319011261019557610afd6123c0565b6024356001600160401b03811161019557610b1c9036906004016126b7565b6044356001600160401b03811161019557610b3b9036906004016126b7565b906001600160401b0360a435116101955736602360a4350112156101955760a4356004013591610b6a836124b3565b92610b786040519485612492565b80845260208401903660248260051b60a43501011161019557602460a43501915b60248260051b60a4350101831061115c57505050610bb56129a1565b610bc06009546128a9565b9283600955610bcf84866129cd565b610bd882612c52565b916006606435101561114857610c0060405193610bf485612425565b86855260208501612891565b610c0f6064356040850161289d565b836060840152608435608084015260843560011c60a084015260036084350460c0840152606460e08401525f61010084015260018060a01b038616610120840152426101408401526101608301526084356101808301526101a0820152825f52600a60205260405f208151815560208201516004811015611148576001820154604084015160068110156111485761ff0060ff9160081b1692169061ffff19161717600182015560608201518051906001600160401b038211610fd857610cd96002840154612572565b601f8111611115575b50602090601f83116001146110a757610d1292915f918361109c575b50508160011b915f199060031b1c19161790565b60028201555b6080820151600382015560a0820151600482015560c0820151600582015560e0820151600682015560078101610d616101008401511515829060ff801983541691151516179055565b6101208301518154610100600160a81b031916600891821b610100600160a81b031617909155610140830151908201556101608201518051906001600160401b038211610fd857610db56009840154612572565b601f8111611069575b50602090601f8311600114610ff75782600b936101a09593610df4935f92610fec5750508160011b915f199060031b1c19161790565b60098201555b610180840151600a820155019101516020815191610e188385612915565b01915f5260205f20915f905b828210610eba5760208686817f930d06404fa17059a0441fbd695b94a5719b30fcc63c2c59995d6ba8b6ab3b29610eaf8c60018060a01b0381165f52600c8752610e718460405f2061295c565b5f848152600d885260409081902080546001600160a01b0319166001600160a01b039390931692831790555187815290949091829182890190612401565b0390a3604051908152f35b80518051906001600160401b038211610fd857610ed78654612572565b601f8111610f9d575b50602090601f8311600114610f315792610f17836001959460209487965f92610f265750508160011b915f199060031b1c19161790565b87555b01940191019092610e24565b015190508d80610cfe565b90865f5260205f20915f5b601f1985168110610f85575083602093600196938796938794601f19811610610f6d575b505050811b018755610f1a565b01515f1960f88460031b161c191690558c8080610f60565b91926020600181928685015181550194019201610f3c565b610fc890875f5260205f20601f850160051c81019160208610610fce575b601f0160051c01906128b7565b89610ee0565b9091508190610fbb565b634e487b7160e01b5f52604160045260245ffd5b015190508a80610cfe565b90600984015f5260205f20915f5b601f19851681106110515750926101a09492600192600b9583601f19811610611039575b505050811b016009820155610dfa565b01515f1960f88460031b161c19169055898080611029565b91926020600181928685015181550194019201611005565b61109690600985015f5260205f20601f850160051c81019160208610610fce57601f0160051c01906128b7565b87610dbe565b015190508880610cfe565b9190600284015f5260205f20905f935b601f19841685106110fa576001945083601f198116106110e2575b505050811b016002820155610d18565b01515f1960f88460031b161c191690558780806110d2565b818101518355602094850194600190930192909101906110b7565b61114290600285015f5260205f20601f850160051c81019160208610610fce57601f0160051c01906128b7565b87610ce2565b634e487b7160e01b5f52602160045260245ffd5b8235906001600160401b038211610195576020809161118460249485369160a43501016126b7565b8152019301929050610b99565b34610195575f366003190112610195576007546040516001600160a01b039091168152602090f35b34610195576020366003190112610195576004355f52600b60205260a060405f20805490600180841b0360018201541690600281015460ff60046003840154930154169260405194855260208501526040840152606083015215156080820152f35b346101955760203660031901126101955760606101a060405161123d81612425565b5f81525f60208201525f604082015282808201525f60808201525f60a08201525f60c08201525f60e08201525f6101008201525f6101208201525f610140820152826101608201525f61018082015201526004355f52600a60205260405f206040516112a881612425565b815481526112d260ff60018401546112c582821660208601612891565b60081c166040830161289d565b6112de600283016125aa565b606082015260038201546080820152600482015460a0820152600582015460c0820152600682015460e0820152600782015460ff81161515610100830152600890811c6001600160a01b0316610120830152820154610140820152611345600983016125aa565b610160820152600a820154610180820152600b820154611364816124b3565b926113726040519485612492565b818452600b6020850191015f5260205f205f915b83831061147d576107fa85876101a082015260405191829160208352805160208401526113bb6020820151604085019061264c565b6113cd60408201516060850190612659565b6113e860608201516101c060808601526101e0850190612401565b608082015160a085015260a082015160c085015260c082015160e085015260e0820151610100850152610100820151151561012085015260018060a01b03610120830151166101408501526101408201516101608501526101a061146061016084015192601f19938488830301610180890152612401565b9261018081015182870152015190848303016101c0850152612516565b60016020819261148c856125aa565b815201920192019190611386565b34610195575f366003190112610195576114b26129a1565b600780546001600160a01b031981169091555f906001600160a01b03167f8be0079c531659141344cd1fd0a4f28419497f9722a3daafe3b4186f6b6457e08280a3005b34610195576020366003190112610195576001600160a01b036115166123c0565b168015611533575f526003602052602060405f2054604051908152f35b6040516322718ad960e21b81525f6004820152602490fd5b34610195576020366003190112610195576004355f52600a60205260405f206060815491611641600182015491611584600282016125aa565b90600381015491600482015460058301546006840154906007850154926115f8600887015495600a6115b860098a016125aa565b9801549a6040519d8e9d8e6115ee6101a094859483526115de6020840160ff831661264c565b60ff604084019160081c16612659565b01528c0190612401565b60808b019790975260a08a015260c089015260e088015260ff8116151561010088015260081c6001600160a01b0316610120870152610140860152848203610160860152612401565b906101808301520390f35b3461019557602036600319011261019557602061166a60043561297f565b6040516001600160a01b039091168152f35b346101955761086961168d366124ca565b906040519261169b8461245c565b5f84526108638383836126fb565b3461019557602080600319360112610195576080906040516116ca81612441565b606092818480935282848201525f60408201525f8382015201526004355f52600a815260405f20604051916116fe83612425565b8154835260019060018301549061171a60ff8316828701612891565b61172e60ff604087019360081c168361289d565b61173a600285016125aa565b85870190815260038501546080870152600485015460a0870152600585015460c0870152600685015460e0870152600785015460ff81161515610100880152600890811c6001600160a01b03166101208801528501546101408701526117a2600986016125aa565b956101608101968752600b600a870154966101808301978852019485546117c8816124b3565b966117d66040519889612492565b8188525f90815285812086808a015b84841061188c575050505050506101a00193845251945191519260068410156111485760a09661187061185a6107fa9751935194604051996118268b612441565b8a52808a0196875260408a01978852838a0194855260808a019586526040519a8b9a828c5251918b015260c08a0190612401565b945194601f1995868a83030160408b0152612401565b94519087015251608086015251908483030160a0850152612516565b85918291611899856125aa565b81520192019201919087906117e5565b34610195576020366003190112610195576004356004811015610195576108936020916124ff565b34610195576108696118e2366124ca565b916126fb565b34610195576040366003190112610195576024356001600160401b038111610195573660238201121561019557806004013590611924826124b3565b906119326040519283612492565b828252602082016024819460051b8301019136831161019557602401905b82821061210d57506001600160a01b03939150507f00000000000000000000000000000000000000000000000000000000000000008316338190036120ef57506004355f52600b60205260405f2092600484019081549160ff83166120aa57600160039360ff191617905560018501541693015482511561209657612710809251069183516001101561209657604084015106928051600210156120965760606119fc91015192612e00565b926064820282159183820460641483171561078657611a2391611a1e91612df3565b612e3f565b92600684101561114857600184019182851161078657600a830292808404600a1490151715610786576005840293840460051417156107865760149006906001820180921161078657611a7e92611a7991612df3565b612df3565b9182158360508102046050148117156107865783603c810204603c14171561078657602091611aae6009546128a9565b9384600955611b056021611ac184612ed3565b86611acb87612e75565b60405198838a9451918291018486015e830190600160fd1b838301528051928391018583015e015f83820152036001810187520185612492565b611b0e83612e75565b9060405190611b1c8261245c565b5f825260405192611b2c84612425565b878452611b3c8660208601612891565b611b49856040860161289d565b8660608501528160808501526064605083020460a08501526064603c83020460c0850152606460e08501525f61010085015288610120850152426101408501526101608401526101808301526101a0820152845f52600a60205260405f208151815560208201516004811015611148576001820154604084015160068110156111485761ff0060ff9160081b1692169061ffff19161717600182015560608201518051906001600160401b038211610fd857611c086002840154612572565b601f8111612063575b50602090601f8311600114611ff557611c4092915f9183610fec5750508160011b915f199060031b1c19161790565b60028201555b6080820151600382015560a0820151600482015560c0820151600582015560e0820151600682015560078101611c8f6101008401511515829060ff801983541691151516179055565b6101208301518154610100600160a81b031916600891821b610100600160a81b031617909155610140830151908201556101608201518051906001600160401b038211610fd857611ce36009840154612572565b601f8111611fc2575b50602090601f8311600114611f485782600b936101a09593611d22935f92611f3d5750508160011b915f199060031b1c19161790565b600982015591889593918895935b610180840151600a820155019101516020815191611d4e8385612915565b01915f5260205f20915f905b828210611e1d5787877f930d06404fa17059a0441fbd695b94a5719b30fcc63c2c59995d6ba8b6ab3b29611e188c84847f63f134aecace0bcbe394a358764a2e9861d7ff35692d385ffd3f7c8f3604fd9b60408e611e038f611dbc86886129cd565b865f52600c602052611dd086855f2061295c565b855f52600d602052835f20876001600160601b0360a01b825416179055611df98451809461264c565b6020830190612659565ba3604051918291602083526020830190612401565b0390a3005b919395509193955080518051906001600160401b038211610fd857611e428654612572565b601f8111611f0d575b50602090601f8311600114611ea15792611e82836001959460209487965f92611e965750508160011b915f199060031b1c19161790565b87555b019401910191879492899694611d5a565b015190508f80610cfe565b90865f5260205f20915f5b601f1985168110611ef5575083602093600196938796938794601f19811610611edd575b505050811b018755611e85565b01515f1960f88460031b161c191690558e8080611ed0565b91926020600181928685015181550194019201611eac565b611f3790875f5260205f20601f850160051c81019160208610610fce57601f0160051c01906128b7565b8b611e4b565b015190508c80610cfe565b90600984015f5260205f20915f5b601f1985168110611faa5750926101a09492600192600b9583601f19811610611f92575b505050811b0160098201559188959391889593611d30565b01515f1960f88460031b161c191690558b8080611f7a565b91926020600181928685015181550194019201611f56565b611fef90600985015f5260205f20601f850160051c81019160208610610fce57601f0160051c01906128b7565b89611cec565b9190600284015f5260205f20905f935b601f1984168510612048576001945083601f19811610612030575b505050811b016002820155611c46565b01515f1960f88460031b161c19169055898080612020565b81810151835560209485019460019093019290910190612005565b61209090600285015f5260205f20601f850160051c81019160208610610fce57601f0160051c01906128b7565b89611c11565b634e487b7160e01b5f52603260045260245ffd5b60405162461bcd60e51b815260206004820152601960248201527f5265717565737420616c72656164792066756c66696c6c6564000000000000006044820152606490fd5b6044906040519063073e64fd60e21b82523360048301526024820152fd5b8135815260209182019101611950565b34610195576040366003190112610195576121366123c0565b6024356121428161297f565b331515806121eb575b806121c2575b6121aa576001600160a01b039283169282918491167f8c5be1e5ebec7d5bd14f71427d1e84f3dd0314c0f7b2291e5b200ac8c7c3b9255f80a45f90815260046020526040902080546001600160a01b0319169091179055005b60405163a9fbf51f60e01b8152336004820152602490fd5b5060018060a01b0381165f52600560205260405f20335f5260205260ff60405f20541615612151565b506001600160a01b03811633141561214b565b346101955760203660031901126101955760043561221b8161297f565b505f526004602052602060018060a01b0360405f205416604051908152f35b34610195575f366003190112610195576040515f8054908261225b83612572565b91828252602093600190856001821691825f14610ac45750506001146122885750610a5592500383612492565b5f808052859250907f290decd9548b62a8d60345a988386fc84ba6bc95484008f6362f93160ef3e5635b8583106122c9575050610a55935082010185610a48565b805483890185015287945086939092019181016122b2565b346101955760203660031901126101955760043563ffffffff60e01b811680910361019557602090632483248360e11b8114908115612326575b506040519015158152f35b6380ac58cd60e01b811491508115612358575b8115612347575b508261231b565b6301ffc9a760e01b14905082612340565b635b5e139f60e01b81149150612339565b34610195576040366003190112610195576123826123c0565b6001600160a01b03165f908152600c6020526040902080546024359190821015610195576020916123b2916123ec565b90546040519160031b1c8152f35b600435906001600160a01b038216820361019557565b602435906001600160a01b038216820361019557565b8054821015612096575f5260205f2001905f90565b805180835260209291819084018484015e5f828201840152601f01601f1916010190565b6101c081019081106001600160401b03821117610fd857604052565b60a081019081106001600160401b03821117610fd857604052565b602081019081106001600160401b03821117610fd857604052565b604081019081106001600160401b03821117610fd857604052565b90601f801991011681019081106001600160401b03821117610fd857604052565b6001600160401b038111610fd85760051b60200190565b6060906003190112610195576001600160a01b0390600435828116810361019557916024359081168103610195579060443590565b6004811015611148575f52600f60205260405f2090565b90808251908181526020809101926020808460051b8301019501935f915b8483106125445750505050505090565b9091929394958480612562600193601f198682030187528a51612401565b9801930193019194939290612534565b90600182811c921680156125a0575b602083101461258c57565b634e487b7160e01b5f52602260045260245ffd5b91607f1691612581565b9060405191825f82546125bc81612572565b908184526020946001916001811690815f1461262a57506001146125ec575b5050506125ea92500383612492565b565b5f90815285812095935091905b8183106126125750506125ea93508201015f80806125db565b855488840185015294850194879450918301916125f9565b925050506125ea94925060ff191682840152151560051b8201015f80806125db565b9060048210156111485752565b9060068210156111485752565b6001600160401b038111610fd857601f01601f191660200190565b92919261268d82612666565b9161269b6040519384612492565b829481845281830111610195578281602093845f960137010152565b9080601f83011215610195578160206126d293359101612681565b90565b60243590811515820361019557565b6006811015611148575f52600e60205260405f2090565b6001600160a01b03918216929091831561287957815f52602092600284528260409583875f20541695331515806127e7575b50600290876127b6575b825f5260038152885f2060018154019055835f5252865f20816001600160601b0360a01b825416179055857fddf252ad1be2c89b69c2b068fc378daa952ba7f163c4a11628f55a4df523b3ef5f80a416928383036127955750505050565b6064945051926364283d7b60e01b8452600484015260248301526044820152fd5b5f84815260046020526040812080546001600160a01b03191690558881526003825289902080545f19019055612737565b9192509080612838575b156127ff579084915f61272d565b86858761281c576024915190637e27328960e01b82526004820152fd5b604491519063177e802f60e01b82523360048301526024820152fd5b50338614801561285d575b806127f15750845f52600481523384885f205416146127f1565b50855f5260058152865f20335f52815260ff875f205416612843565b604051633250574960e11b81525f6004820152602490fd5b60048210156111485752565b60068210156111485752565b5f1981146107865760010190565b8181106128c2575050565b5f81556001016128b7565b6128d78154612572565b90816128e1575050565b81601f5f93116001146128f2575055565b908083918252612911601f60208420940160051c8401600185016128b7565b5555565b90600160401b8111610fd85781549181815582821061293357505050565b5f5260205f2091820191015b81811061294a575050565b806129566001926128cd565b0161293f565b90815491600160401b831015610fd857826105da9160016125ea950181556123ec565b5f818152600260205260409020546001600160a01b03169081156106f1575090565b6007546001600160a01b031633036129b557565b60405163118cdaa760e01b8152336004820152602490fd5b60408051926129db8461245c565b5f84526001600160a01b0393838516938415612bd357825f5260209560028752845f20541683868215159283612ba2575b5f82815260038b528881208054600101905583815260028b5288812080546001600160a01b031916841790557fddf252ad1be2c89b69c2b068fc378daa952ba7f163c4a11628f55a4df523b3ef9080a4612b8b573b612a6d575b5050505050565b84612aaa9184959697945180938192630a85bd0160e11b968784523360048501525f60248501526044840152608060648401526084830190612401565b03815f895af15f9181612b4b575b50612b14575050503d5f14612b0d573d612ad181612666565b90612ade83519283612492565b81523d5f8583013e5b80519384612b07578251633250574960e11b815260048101859052602490fd5b84925001fd5b6060612ae7565b9194506001600160e01b031990911603612b345750505f80808080612a66565b602492505190633250574960e11b82526004820152fd5b9091508681813d8311612b84575b612b638183612492565b8101031261019557516001600160e01b03198116810361019557905f612ab8565b503d612b59565b83516339e3563760e11b81525f6004820152602490fd5b5f83815260046020526040812080546001600160a01b031916905581815260038b5288902080545f19019055612a0c565b8351633250574960e11b81525f6004820152602490fd5b60405190612bf782612477565b60068252652bb2b0b837b760d11b6020830152565b60405190612c1982612477565b600582526420b936b7b960d91b6020830152565b60405190612c3a82612477565b60098252684163636573736f727960b81b6020830152565b60208151910120612c61612bea565b602081519101208114612ca757612c76612c0c565b602081519101208114612ca157612c8b612c2d565b6020815191012014612c9c57600390565b600290565b50600190565b505f90565b9293909193843b612cbe575050505050565b604051630a85bd0160e11b8082526001600160a01b039586166004830152938516602482015260448101919091526080606482015260209594909316939290859082908190612d11906084830190612401565b03815f885af15f9181612db3575b50612d7c575050503d5f14612d75573d612d3881612666565b90612d466040519283612492565b81523d5f8483013e5b80519283612d7057604051633250574960e11b815260048101849052602490fd5b019050fd5b6060612d4f565b9193506001600160e01b031990911603612d9b57505f80808080612a66565b60249060405190633250574960e11b82526004820152fd5b9091508581813d8311612dec575b612dcb8183612492565b8101031261019557516001600160e01b03198116810361019557905f612d1f565b503d612dc1565b9190820180921161078657565b5f90815b60048310612e1457505050600390565b612e2890612e21846124ff565b5490612df3565b91828210612e395760010191612e04565b91505090565b5f906127109006815b60068310612e57575050505f90565b612e6490612e21846126e4565b91828210612e395760010191612e48565b6004811015611148578015612eca5760018114612ec157600214612eb957604051612e9f81612477565b600a815269436f6e73756d61626c6560b01b602082015290565b6126d2612c2d565b506126d2612c0c565b506126d2612bea565b6006811015611148578015612faf5760018114612f8a5760028114612f695760038114612f4857600414612f2357604051612f0d81612477565b60068152654d797468696360d01b602082015290565b604051612f2f81612477565b60098152684c6567656e6461727960b81b602082015290565b50604051612f5581612477565b60048152634570696360e01b602082015290565b50604051612f7681612477565b60048152635261726560e01b602082015290565b50604051612f9781612477565b60088152672ab731b7b6b6b7b760c11b602082015290565b50604051612fbc81612477565b600681526521b7b6b6b7b760d11b60208201529056fea164736f6c6343000819000a","linkReferences":{}},"methodIdentifiers":{"approve(address,uint256)":"095ea7b3","balanceOf(address)":"70a08231","burnLoot(uint256)":"cf513e57","equipment(uint256)":"65b817e6","equipmentOwner(uint256)":"f4643f8f","getApproved(uint256)":"081812fc","getEquipment(uint256)":"81dd2fa0","getLoot(uint256)":"425ce651","getPlayerEquipment(address)":"d67c2a1c","isApprovedForAll(address,address)":"e985e9c5","lootRequests(uint256)":"838db997","mintLoot(address,string,string,uint256,uint256,string[])":"9361e720","name()":"06fdde03","owner()":"8da5cb5b","ownerOf(uint256)":"6352211e","playerEquipment(address,uint256)":"0149f855","rarityProbabilities(uint8)":"a2fbf567","rawFulfillRandomWords(uint256,uint256[])":"1fe543e3","renounceOwnership()":"715018a6","requestLoot(address,uint256,uint256)":"f20b557b","safeTransferFrom(address,address,uint256)":"42842e0e","safeTransferFrom(address,address,uint256,bytes)":"b88d4fde","setApprovalForAll(address,bool)":"a22cb465","setLendingStatus(uint256,bool)":"9f62d0e0","supportsInterface(bytes4)":"01ffc9a7","symbol()":"95d89b41","tokenURI(uint256)":"c87b56dd","transferFrom(address,address,uint256)":"23b872dd","transferOwnership(address)":"f2fde38b","typeProbabilities(uint8)":"3e40a437"},"id":61}