{"abi":[{"type":"constructor","inputs":[{"name":"initialOwner","type":"address","internalType":"address"}],"stateMutability":"nonpayable"},{"type":"function","name":"createParty","inputs":[{"name":"maxSize","type":"uint256","internalType":"uint256"}],"outputs":[{"name":"","type":"uint256","internalType":"uint256"}],"stateMutability":"nonpayable"},{"type":"function","name":"getParty","inputs":[{"name":"partyId","type":"uint256","internalType":"uint256"}],"outputs":[{"name":"","type":"tuple","internalType":"struct PartyRegistry.Party","components":[{"name":"id","type":"uint256","internalType":"uint256"},{"name":"leader","type":"address","internalType":"address"},{"name":"members","type":"address[]","internalType":"address[]"},{"name":"maxSize","type":"uint256","internalType":"uint256"},{"name":"chainId","type":"uint256","internalType":"uint256"},{"name":"isActive","type":"bool","internalType":"bool"},{"name":"createdAt","type":"uint256","internalType":"uint256"},{"name":"dungeonSeed","type":"bytes32","internalType":"bytes32"}]}],"stateMutability":"view"},{"type":"function","name":"getPartyCount","inputs":[],"outputs":[{"name":"","type":"uint256","internalType":"uint256"}],"stateMutability":"view"},{"type":"function","name":"getPlayer","inputs":[{"name":"playerAddress","type":"address","internalType":"address"}],"outputs":[{"name":"","type":"tuple","internalType":"struct PartyRegistry.Player","components":[{"name":"wallet","type":"address","internalType":"address"},{"name":"level","type":"uint256","internalType":"uint256"},{"name":"experience","type":"uint256","internalType":"uint256"},{"name":"isRegistered","type":"bool","internalType":"bool"},{"name":"currentPartyId","type":"uint256","internalType":"uint256"}]}],"stateMutability":"view"},{"type":"function","name":"isPlayerInParty","inputs":[{"name":"partyId","type":"uint256","internalType":"uint256"},{"name":"player","type":"address","internalType":"address"}],"outputs":[{"name":"","type":"bool","internalType":"bool"}],"stateMutability":"view"},{"type":"function","name":"joinParty","inputs":[{"name":"partyId","type":"uint256","internalType":"uint256"}],"outputs":[],"stateMutability":"nonpayable"},{"type":"function","name":"kickPlayer","inputs":[{"name":"partyId","type":"uint256","internalType":"uint256"},{"name":"player","type":"address","internalType":"address"}],"outputs":[],"stateMutability":"nonpayable"},{"type":"function","name":"leaveParty","inputs":[],"outputs":[],"stateMutability":"nonpayable"},{"type":"function","name":"owner","inputs":[],"outputs":[{"name":"","type":"address","internalType":"address"}],"stateMutability":"view"},{"type":"function","name":"parties","inputs":[{"name":"","type":"uint256","internalType":"uint256"}],"outputs":[{"name":"id","type":"uint256","internalType":"uint256"},{"name":"leader","type":"address","internalType":"address"},{"name":"maxSize","type":"uint256","internalType":"uint256"},{"name":"chainId","type":"uint256","internalType":"uint256"},{"name":"isActive","type":"bool","internalType":"bool"},{"name":"createdAt","type":"uint256","internalType":"uint256"},{"name":"dungeonSeed","type":"bytes32","internalType":"bytes32"}],"stateMutability":"view"},{"type":"function","name":"partyMembers","inputs":[{"name":"","type":"uint256","internalType":"uint256"},{"name":"","type":"address","internalType":"address"}],"outputs":[{"name":"","type":"bool","internalType":"bool"}],"stateMutability":"view"},{"type":"function","name":"players","inputs":[{"name":"","type":"address","internalType":"address"}],"outputs":[{"name":"wallet","type":"address","internalType":"address"},{"name":"level","type":"uint256","internalType":"uint256"},{"name":"experience","type":"uint256","internalType":"uint256"},{"name":"isRegistered","type":"bool","internalType":"bool"},{"name":"currentPartyId","type":"uint256","internalType":"uint256"}],"stateMutability":"view"},{"type":"function","name":"registerPlayer","inputs":[],"outputs":[],"stateMutability":"nonpayable"},{"type":"function","name":"renounceOwnership","inputs":[],"outputs":[],"stateMutability":"nonpayable"},{"type":"function","name":"setDungeonSeed","inputs":[{"name":"partyId","type":"uint256","internalType":"uint256"},{"name":"seed","type":"bytes32","internalType":"bytes32"}],"outputs":[],"stateMutability":"nonpayable"},{"type":"function","name":"transferOwnership","inputs":[{"name":"newOwner","type":"address","internalType":"address"}],"outputs":[],"stateMutability":"nonpayable"},{"type":"function","name":"updatePlayerStats","inputs":[{"name":"player","type":"address","internalType":"address"},{"name":"newLevel","type":"uint256","internalType":"uint256"},{"name":"newExperience","type":"uint256","internalType":"uint256"}],"outputs":[],"stateMutability":"nonpayable"},{"type":"event","name":"CrossChainPartySync","inputs":[{"name":"partyId","type":"uint256","indexed":true,"internalType":"uint256"},{"name":"targetChainId","type":"uint256","indexed":false,"internalType":"uint256"},{"name":"messageId","type":"bytes32","indexed":false,"internalType":"bytes32"}],"anonymous":false},{"type":"event","name":"OwnershipTransferred","inputs":[{"name":"previousOwner","type":"address","indexed":true,"internalType":"address"},{"name":"newOwner","type":"address","indexed":true,"internalType":"address"}],"anonymous":false},{"type":"event","name":"PartyCreated","inputs":[{"name":"partyId","type":"uint256","indexed":true,"internalType":"uint256"},{"name":"leader","type":"address","indexed":true,"internalType":"address"},{"name":"chainId","type":"uint256","indexed":false,"internalType":"uint256"}],"anonymous":false},{"type":"event","name":"PartyDisbanded","inputs":[{"name":"partyId","type":"uint256","indexed":true,"internalType":"uint256"}],"anonymous":false},{"type":"event","name":"PlayerJoinedParty","inputs":[{"name":"partyId","type":"uint256","indexed":true,"internalType":"uint256"},{"name":"player","type":"address","indexed":true,"internalType":"address"}],"anonymous":false},{"type":"event","name":"PlayerLeftParty","inputs":[{"name":"partyId","type":"uint256","indexed":true,"internalType":"uint256"},{"name":"player","type":"address","indexed":true,"internalType":"address"}],"anonymous":false},{"type":"event","name":"PlayerRegistered","inputs":[{"name":"player","type":"address","indexed":true,"internalType":"address"},{"name":"timestamp","type":"uint256","indexed":false,"internalType":"uint256"}],"anonymous":false},{"type":"error","name":"OwnableInvalidOwner","inputs":[{"name":"owner","type":"address","internalType":"address"}]},{"type":"error","name":"OwnableUnauthorizedAccount","inputs":[{"name":"account","type":"address","internalType":"address"}]},{"type":"error","name":"ReentrancyGuardReentrantCall","inputs":[]}],"bytecode":{"object":"0x60803460b857601f6112c838819003918201601f19168301916001600160401b0383118484101760bc5780849260209460405283398101031260b857516001600160a01b03908181169081900360b857801560a0575f80546001600160a01b03198116831782556040519316907f8be0079c531659141344cd1fd0a4f28419497f9722a3daafe3b4186f6b6457e09080a3600180556111f790816100d18239f35b604051631e4fbdf760e01b81525f6004820152602490fd5b5f80fd5b634e487b7160e01b5f52604160045260245ffdfe60c060409080825260049081361015610016575f80fd5b60e05f35811c9182632a92555c14610e98575081633ea8ffcd14610e4f5781635c07a4b014610d3b5781635c12cd4b14610c7f57816360b960e514610c6157816370651a1814610bee578163715018a614610b975781638da5cb5b14610b705781639421b99914610a9857816394758218146108dd578163b53eb1cf14610898578163d16556dd1461059757508063d8a71bac14610459578063dbc658b414610231578063e2eb41ff146101c9578063eca92052146101675763f2fde38b146100dd575f80fd5b34610163576020366003190112610163576100f6610ef5565b906100ff611087565b6001600160a01b0391821692831561014d5750505f54826001600160601b0360a01b8216175f55167f8be0079c531659141344cd1fd0a4f28419497f9722a3daafe3b4186f6b6457e05f80a3005b905f6024925191631e4fbdf760e01b8352820152fd5b5f80fd5b503461016357606036600319011261016357610181610ef5565b610189611087565b6001600160a01b03165f8181526020839052839020600301546101ae9060ff16610fd9565b5f526020525f20602435600182015560026044359101555f80f35b50346101635760203660031901126101635760a0916001600160a01b03806101ef610ef5565b165f5282602052815f20908154169260018201549260028301549160ff6003850154169301549381519586526020860152840152151560608301526080820152f35b509034610163576020918260031936011261016357803591335f52818452600361026260ff82845f20015416610fd9565b835f52808552815f20541561041f57335f5282855261028683835f2001541561101d565b835f5280855260ff6005835f20015416156103e657835f52808552815f2081600282015491015411156103b357835f5260058552815f20335f52855260ff825f20541661037857835f5284526002815f2001805490600160401b821015610365579461031b6102fd8387986001889601815561105e565b81546001600160a01b0360039290921b91821b19163390911b179055565b845f5260058152825f20335f528152825f20600160ff19825416179055525f20015533907f23fc1bcbd8ca31814805bd8fcaf169ff643ad93e5446b797ebe9f4e50fc990015f80a3005b604184634e487b7160e01b5f525260245ffd5b815162461bcd60e51b81528084018690526015602482015274416c726561647920696e207468697320706172747960581b6044820152606490fd5b815162461bcd60e51b8152808401869052600d60248201526c14185c9d1e481a5cc8199d5b1b609a1b6044820152606490fd5b815162461bcd60e51b815280840186905260136024820152725061727479206973206e6f742061637469766560681b6044820152606490fd5b815162461bcd60e51b8152808401869052601460248201527314185c9d1e48191bd95cc81b9bdd08195e1a5cdd60621b6044820152606490fd5b509034610163575f36600319011261016357335f52602082815261048560ff6003845f20015416610fd9565b335f5282815282825f20015492831561056557506104a333846110b2565b5f8381526003825282902060018101546001600160a01b039190821633146104ee575b33857f03416c35453b92dd0e5a4405868a4f450145bc63ee81c9c19080e8f7031afe625f80a3005b600201805461053d575050906003600592845f52525f200160ff198154169055807faebf0c3dbf9cf58b12ac3b017277188020171088c92cfa6421fd54b9302d589a5f80a25b5f8080806104c6565b916001925f525f20541691835f525f2001906001600160601b0360a01b825416179055610534565b915162461bcd60e51b815291820152600e60248201526d4e6f7420696e206120706172747960901b6044820152606490fd5b90503461016357602060a081905236600319011261016357813590335f528260a051526105cc60ff6003865f20015416610fd9565b335f528260a051526105e383855f2001541561101d565b60028210158061088d575b1561085457600254915f1983146108415760019283016080819052600255845167ffffffffffffffff92908087018481118282101761082e57875284815260a051810160a05136823781511561081b5733905286519361064d85610f7a565b608051855260a05185019333855288860192835260608601908152608086019146835260a087019388855260c08801954287528801965f88526080515f52600360a051528b5f209851895589890160018060a01b03809251166001600160601b0360a01b825416179055600289019151805193841161080857600160401b84116108085782548484558085106107de575b5060a05101915f5260a0515f20908a5f5b8581106107c857505050505050916107299160079594935160038801555188870155511515600586019060ff801983541691151516179055565b516006840155519101556080515f52600560a05152825f20335f5260a05152825f209060ff198254161790558060a0515260805190825f200155805146815233907fb25d3303e9adf1035aee35d2b80f1198a3347850ab326db32dadba695a68b1736080519160a05190a351336080517f23fc1bcbd8ca31814805bd8fcaf169ff643ad93e5446b797ebe9f4e50fc990015f80a3608051815260a05190f35b828551169460a051019481850155018b906106ef565b835f5260a0515f20908c8683015b82840181106107fd575050506106de565b5f8155018d906107ec565b60418c634e487b7160e01b5f525260245ffd5b603287634e487b7160e01b5f525260245ffd5b604187634e487b7160e01b5f525260245ffd5b601184634e487b7160e01b5f525260245ffd5b835162461bcd60e51b815260a051818501526012602482015271496e76616c69642070617274792073697a6560701b6044820152606490fd5b5060088211156105ee565b8284346101635780600319360112610163576020916108b5610edf565b90355f5260058352815f209060018060a01b03165f52825260ff815f20541690519015158152f35b8383346101635760209081600319360112610163575f8484516108ff81610f7a565b82815282858201526060868201528260608201528260808201528260a08201528260c0820152015280355f5260038252825f209083519461093f86610f7a565b8254865260018060a01b039260019584600183015416938689019485526002830190825191828982549182815201915f52895f20905f5b8c8c838310610a84575050505050829003601f01601f191682019967ffffffffffffffff8b11838c1017610a7157969799988a99845283880192835260038501549160608901928352850154926080890193845260ff6005870154169460a08a0195151586528a600760068901549860c08d01998a52015499898c019a8b5282518e819f825261012082019d519101525116908c01525198610100988960608d01528a518091528c6101408d019b01915f905b828210610a5a5750505050508899505160808901525160a088015251151560c0870152519085015251908301520390f35b835181168d529b8e019b928e019290840190610a29565b604182634e487b7160e01b5f525260245ffd5b84548d168652909401939283019201610976565b505034610163578160031936011261016357803590610ab5610edf565b90825f52600360205260018060a01b0393610ad9856001835f200154163314610f0b565b835f526005602052805f2094831694855f52602052610afd60ff825f205416610f97565b338514610b36575050610b1090826110b2565b7f03416c35453b92dd0e5a4405868a4f450145bc63ee81c9c19080e8f7031afe625f80a3005b906020606492519162461bcd60e51b8352820152601460248201527321b0b73737ba1035b4b1b5903cb7bab939b2b63360611b6044820152fd5b8334610163575f366003190112610163575f5490516001600160a01b039091168152602090f35b34610163575f36600319011261016357610baf611087565b5f80546001600160a01b0319811682556001600160a01b03167f8be0079c531659141344cd1fd0a4f28419497f9722a3daafe3b4186f6b6457e08280a3005b8383346101635760203660031901126101635780355f526003602052815f2080549260018060a01b03600183015416926003830154908301549060ff6005850154169260076006860154950154958151978852602088015286015260608501521515608084015260a083015260c0820152f35b8334610163575f366003190112610163576020906002549051908152f35b5050346101635760203660031901126101635760a091610c9d610ef5565b905f60808251610cac81610f4a565b82815282602082015282848201528260608201520152600180851b038092165f5282602052805f2090805192610ce184610f4a565b82541693848452600183015460208501908152608060028501549284870193845260ff6003870154169560608801961515875201549501948552825195865251602086015251908401525115156060830152516080820152f35b505034610163575f36600319011261016357335f528060205260ff6003835f20015416610e0d57815190610d6e82610f4a565b3382526020820160018152610ddd8484015f815260608501906001825260808601935f8552335f5285602052875f209660018060a01b039051166001600160601b0360a01b885416178755516001870155516002860155511515600385019060ff801983541691151516179055565b51910155514281527f324cb0062138d65997c86cd3012489ceb351d602f2f55c7408306e8040c79f3f60203392a2005b6020606492519162461bcd60e51b8352820152601960248201527f506c6179657220616c72656164792072656769737465726564000000000000006044820152fd5b50503461016357816003193601126101635735805f526003602052610e8360018060a01b036001845f200154163314610f0b565b5f5260036020526007602435915f2001555f80f35b8490843461016357826003193601126101635760209260ff91610eb9610edf565b90355f908152600586528281206001600160a01b03909216815290855220541615158152f35b602435906001600160a01b038216820361016357565b600435906001600160a01b038216820361016357565b15610f1257565b60405162461bcd60e51b815260206004820152601060248201526f2737ba103830b93a3c903632b0b232b960811b6044820152606490fd5b60a0810190811067ffffffffffffffff821117610f6657604052565b634e487b7160e01b5f52604160045260245ffd5b610100810190811067ffffffffffffffff821117610f6657604052565b15610f9e57565b60405162461bcd60e51b8152602060048201526013602482015272506c61796572206e6f7420696e20706172747960681b6044820152606490fd5b15610fe057565b60405162461bcd60e51b8152602060048201526015602482015274141b185e595c881b9bdd081c9959da5cdd195c9959605a1b6044820152606490fd5b1561102457565b60405162461bcd60e51b8152602060048201526012602482015271416c726561647920696e206120706172747960701b6044820152606490fd5b8054821015611073575f5260205f2001905f90565b634e487b7160e01b5f52603260045260245ffd5b5f546001600160a01b0316330361109a57565b60405163118cdaa760e01b8152336004820152602490fd5b90815f52602090600582526040906002825f209260018060a01b0380931693845f5285526110e560ff825f205416610f97565b855f5260058552805f20845f528552805f2060ff198154169055600495600486525f600483822001555f5260038095525f2001915f5b8354808210156111e1578284611131848861105e565b905490891b1c1614611146575060010161111b565b9293949591505f19928381019081116111ce57906111798561116b611197948961105e565b9054908a1b1c16918761105e565b90919060018060a01b038084549260031b9316831b921b1916179055565b83549081156111bb575001926111ad848461105e565b81939154921b1b1916905555565b603190634e487b7160e01b5f525260245ffd5b601183634e487b7160e01b5f525260245ffd5b5050505050505056fea164736f6c6343000819000a","linkReferences":{}},"methodIdentifiers":{"createParty(uint256)":"d16556dd","getParty(uint256)":"94758218","getPartyCount()":"60b960e5","getPlayer(address)":"5c12cd4b","isPlayerInParty(uint256,address)":"2a92555c","joinParty(uint256)":"dbc658b4","kickPlayer(uint256,address)":"9421b999","leaveParty()":"d8a71bac","owner()":"8da5cb5b","parties(uint256)":"70651a18","partyMembers(uint256,address)":"b53eb1cf","players(address)":"e2eb41ff","registerPlayer()":"5c07a4b0","renounceOwnership()":"715018a6","setDungeonSeed(uint256,bytes32)":"3ea8ffcd","transferOwnership(address)":"f2fde38b","updatePlayerStats(address,uint256,uint256)":"eca92052"},"id":62}